{
  "contractName": "kittyContract",
  "abi": [
    {
      "anonymous": false,
      "inputs": [
        {
          "indexed": true,
          "internalType": "address",
          "name": "owner",
          "type": "address"
        },
        {
          "indexed": true,
          "internalType": "address",
          "name": "approved",
          "type": "address"
        },
        {
          "indexed": true,
          "internalType": "uint256",
          "name": "tokenId",
          "type": "uint256"
        }
      ],
      "name": "Approval",
      "type": "event"
    },
    {
      "anonymous": false,
      "inputs": [
        {
          "indexed": true,
          "internalType": "address",
          "name": "owner",
          "type": "address"
        },
        {
          "indexed": true,
          "internalType": "address",
          "name": "operator",
          "type": "address"
        },
        {
          "indexed": false,
          "internalType": "bool",
          "name": "approved",
          "type": "bool"
        }
      ],
      "name": "ApprovalForAll",
      "type": "event"
    },
    {
      "anonymous": false,
      "inputs": [
        {
          "indexed": false,
          "internalType": "address",
          "name": "owner",
          "type": "address"
        },
        {
          "indexed": false,
          "internalType": "uint256",
          "name": "kittenId",
          "type": "uint256"
        },
        {
          "indexed": false,
          "internalType": "uint256",
          "name": "mumId",
          "type": "uint256"
        },
        {
          "indexed": false,
          "internalType": "uint256",
          "name": "dadId",
          "type": "uint256"
        },
        {
          "indexed": false,
          "internalType": "uint256",
          "name": "genes",
          "type": "uint256"
        }
      ],
      "name": "Birth",
      "type": "event"
    },
    {
      "anonymous": false,
      "inputs": [
        {
          "indexed": true,
          "internalType": "address",
          "name": "previousOwner",
          "type": "address"
        },
        {
          "indexed": true,
          "internalType": "address",
          "name": "newOwner",
          "type": "address"
        }
      ],
      "name": "OwnershipTransferred",
      "type": "event"
    },
    {
      "anonymous": false,
      "inputs": [
        {
          "indexed": true,
          "internalType": "address",
          "name": "from",
          "type": "address"
        },
        {
          "indexed": true,
          "internalType": "address",
          "name": "to",
          "type": "address"
        },
        {
          "indexed": true,
          "internalType": "uint256",
          "name": "tokenId",
          "type": "uint256"
        }
      ],
      "name": "Transfer",
      "type": "event"
    },
    {
      "inputs": [],
      "name": "CREATION_LIMIT_GEN0",
      "outputs": [
        {
          "internalType": "uint256",
          "name": "",
          "type": "uint256"
        }
      ],
      "stateMutability": "view",
      "type": "function"
    },
    {
      "inputs": [],
      "name": "gen0Counter",
      "outputs": [
        {
          "internalType": "uint256",
          "name": "",
          "type": "uint256"
        }
      ],
      "stateMutability": "view",
      "type": "function"
    },
    {
      "inputs": [
        {
          "internalType": "uint256",
          "name": "",
          "type": "uint256"
        }
      ],
      "name": "kittyIndexToApproved",
      "outputs": [
        {
          "internalType": "address",
          "name": "",
          "type": "address"
        }
      ],
      "stateMutability": "view",
      "type": "function"
    },
    {
      "inputs": [
        {
          "internalType": "uint256",
          "name": "",
          "type": "uint256"
        }
      ],
      "name": "kittyIndexToOwner",
      "outputs": [
        {
          "internalType": "address",
          "name": "",
          "type": "address"
        }
      ],
      "stateMutability": "view",
      "type": "function"
    },
    {
      "inputs": [],
      "name": "owner",
      "outputs": [
        {
          "internalType": "address",
          "name": "",
          "type": "address"
        }
      ],
      "stateMutability": "view",
      "type": "function"
    },
    {
      "inputs": [],
      "name": "renounceOwnership",
      "outputs": [],
      "stateMutability": "nonpayable",
      "type": "function"
    },
    {
      "inputs": [],
      "name": "symbolOfToken",
      "outputs": [
        {
          "internalType": "string",
          "name": "",
          "type": "string"
        }
      ],
      "stateMutability": "view",
      "type": "function"
    },
    {
      "inputs": [],
      "name": "token",
      "outputs": [
        {
          "internalType": "string",
          "name": "",
          "type": "string"
        }
      ],
      "stateMutability": "view",
      "type": "function"
    },
    {
      "inputs": [
        {
          "internalType": "address",
          "name": "newOwner",
          "type": "address"
        }
      ],
      "name": "transferOwnership",
      "outputs": [],
      "stateMutability": "nonpayable",
      "type": "function"
    },
    {
      "inputs": [
        {
          "internalType": "uint256",
          "name": "_dadId",
          "type": "uint256"
        },
        {
          "internalType": "uint256",
          "name": "_mumId",
          "type": "uint256"
        }
      ],
      "name": "breed",
      "outputs": [
        {
          "internalType": "uint256",
          "name": "",
          "type": "uint256"
        }
      ],
      "stateMutability": "nonpayable",
      "type": "function"
    },
    {
      "inputs": [
        {
          "internalType": "bytes4",
          "name": "_interfaceId",
          "type": "bytes4"
        }
      ],
      "name": "supportsInterface",
      "outputs": [
        {
          "internalType": "bool",
          "name": "",
          "type": "bool"
        }
      ],
      "stateMutability": "view",
      "type": "function"
    },
    {
      "inputs": [
        {
          "internalType": "uint256",
          "name": "_kittenId",
          "type": "uint256"
        }
      ],
      "name": "getKitty",
      "outputs": [
        {
          "internalType": "uint256",
          "name": "genes",
          "type": "uint256"
        },
        {
          "internalType": "uint256",
          "name": "birthTime",
          "type": "uint256"
        },
        {
          "internalType": "uint256",
          "name": "mumId",
          "type": "uint256"
        },
        {
          "internalType": "uint256",
          "name": "dadId",
          "type": "uint256"
        },
        {
          "internalType": "uint256",
          "name": "generation",
          "type": "uint256"
        },
        {
          "internalType": "address",
          "name": "owner",
          "type": "address"
        }
      ],
      "stateMutability": "view",
      "type": "function"
    },
    {
      "inputs": [
        {
          "internalType": "uint256",
          "name": "_genes",
          "type": "uint256"
        }
      ],
      "name": "createKittyGen0",
      "outputs": [
        {
          "internalType": "uint256",
          "name": "",
          "type": "uint256"
        }
      ],
      "stateMutability": "nonpayable",
      "type": "function"
    },
    {
      "inputs": [
        {
          "internalType": "address",
          "name": "owner",
          "type": "address"
        }
      ],
      "name": "balanceOf",
      "outputs": [
        {
          "internalType": "uint256",
          "name": "balance",
          "type": "uint256"
        }
      ],
      "stateMutability": "view",
      "type": "function"
    },
    {
      "inputs": [],
      "name": "totalSupply",
      "outputs": [
        {
          "internalType": "uint256",
          "name": "total",
          "type": "uint256"
        }
      ],
      "stateMutability": "view",
      "type": "function"
    },
    {
      "inputs": [],
      "name": "name",
      "outputs": [
        {
          "internalType": "string",
          "name": "tokenName",
          "type": "string"
        }
      ],
      "stateMutability": "view",
      "type": "function"
    },
    {
      "inputs": [],
      "name": "symbol",
      "outputs": [
        {
          "internalType": "string",
          "name": "tokenSymbol",
          "type": "string"
        }
      ],
      "stateMutability": "view",
      "type": "function"
    },
    {
      "inputs": [
        {
          "internalType": "uint256",
          "name": "tokenId",
          "type": "uint256"
        }
      ],
      "name": "ownerOf",
      "outputs": [
        {
          "internalType": "address",
          "name": "owner",
          "type": "address"
        }
      ],
      "stateMutability": "view",
      "type": "function"
    },
    {
      "inputs": [
        {
          "internalType": "address",
          "name": "to",
          "type": "address"
        },
        {
          "internalType": "uint256",
          "name": "tokenId",
          "type": "uint256"
        }
      ],
      "name": "transfer",
      "outputs": [],
      "stateMutability": "nonpayable",
      "type": "function"
    },
    {
      "inputs": [
        {
          "internalType": "address",
          "name": "_owner",
          "type": "address"
        },
        {
          "internalType": "address",
          "name": "_operator",
          "type": "address"
        }
      ],
      "name": "isApprovedForAll",
      "outputs": [
        {
          "internalType": "bool",
          "name": "",
          "type": "bool"
        }
      ],
      "stateMutability": "view",
      "type": "function"
    },
    {
      "inputs": [
        {
          "internalType": "address",
          "name": "_approved",
          "type": "address"
        },
        {
          "internalType": "uint256",
          "name": "_tokenId",
          "type": "uint256"
        }
      ],
      "name": "approve",
      "outputs": [],
      "stateMutability": "nonpayable",
      "type": "function"
    },
    {
      "inputs": [
        {
          "internalType": "address",
          "name": "_operator",
          "type": "address"
        },
        {
          "internalType": "bool",
          "name": "_approved",
          "type": "bool"
        }
      ],
      "name": "setApprovalForAll",
      "outputs": [],
      "stateMutability": "nonpayable",
      "type": "function"
    },
    {
      "inputs": [
        {
          "internalType": "uint256",
          "name": "_tokenId",
          "type": "uint256"
        }
      ],
      "name": "getApproved",
      "outputs": [
        {
          "internalType": "address",
          "name": "",
          "type": "address"
        }
      ],
      "stateMutability": "view",
      "type": "function"
    },
    {
      "inputs": [
        {
          "internalType": "address",
          "name": "_from",
          "type": "address"
        },
        {
          "internalType": "address",
          "name": "_to",
          "type": "address"
        },
        {
          "internalType": "uint256",
          "name": "_tokenId",
          "type": "uint256"
        }
      ],
      "name": "transferFrom",
      "outputs": [],
      "stateMutability": "nonpayable",
      "type": "function"
    },
    {
      "inputs": [
        {
          "internalType": "address",
          "name": "_from",
          "type": "address"
        },
        {
          "internalType": "address",
          "name": "_to",
          "type": "address"
        },
        {
          "internalType": "uint256",
          "name": "_tokenId",
          "type": "uint256"
        }
      ],
      "name": "safeTransferFrom",
      "outputs": [],
      "stateMutability": "nonpayable",
      "type": "function"
    },
    {
      "inputs": [
        {
          "internalType": "address",
          "name": "_from",
          "type": "address"
        },
        {
          "internalType": "address",
          "name": "_to",
          "type": "address"
        },
        {
          "internalType": "uint256",
          "name": "_tokenId",
          "type": "uint256"
        },
        {
          "internalType": "bytes",
          "name": "data",
          "type": "bytes"
        }
      ],
      "name": "safeTransferFrom",
      "outputs": [],
      "stateMutability": "nonpayable",
      "type": "function"
    }
  ],
  "bytecode": "0x60806040523480156200001157600080fd5b5062000032620000266200003860201b60201c565b6200004060201b60201c565b62000104565b600033905090565b60008060009054906101000a900473ffffffffffffffffffffffffffffffffffffffff169050816000806101000a81548173ffffffffffffffffffffffffffffffffffffffff021916908373ffffffffffffffffffffffffffffffffffffffff1602179055508173ffffffffffffffffffffffffffffffffffffffff168173ffffffffffffffffffffffffffffffffffffffff167f8be0079c531659141344cd1fd0a4f28419497f9722a3daafe3b4186f6b6457e060405160405180910390a35050565b6128c280620001146000396000f3fe608060405234801561001057600080fd5b506004361061018e5760003560e01c806395d89b41116100de578063d5a776ca11610097578063e98b7f4d11610071578063e98b7f4d146104a9578063ef5e94aa146104de578063f2fde38b146104fc578063fc0c546a146105185761018e565b8063d5a776ca14610419578063d9ecad7b14610449578063e985e9c5146104795761018e565b806395d89b4114610359578063a22cb46514610377578063a45f4bfc14610393578063a9059cbb146103c3578063b4834330146103df578063b88d4fde146103fd5761018e565b806342842e0e1161014b57806370a082311161012557806370a08231146102e3578063715018a6146103135780638da5cb5b1461031d578063938e5e8e1461033b5761018e565b806342842e0e14610267578063481af3d3146102835780636352211e146102b35761018e565b806301ffc9a71461019357806306fdde03146101c3578063081812fc146101e1578063095ea7b31461021157806318160ddd1461022d57806323b872dd1461024b575b600080fd5b6101ad60048036038101906101a89190611c25565b610536565b6040516101ba9190611c6d565b60405180910390f35b6101cb6105d6565b6040516101d89190611d21565b60405180910390f35b6101fb60048036038101906101f69190611d79565b610613565b6040516102089190611de7565b60405180910390f35b61022b60048036038101906102269190611e2e565b610663565b005b6102356107b8565b6040516102429190611e7d565b60405180910390f35b61026560048036038101906102609190611e98565b6107c5565b005b610281600480360381019061027c9190611e98565b61088f565b005b61029d60048036038101906102989190611d79565b61099a565b6040516102aa9190611de7565b60405180910390f35b6102cd60048036038101906102c89190611d79565b6109cd565b6040516102da9190611de7565b60405180910390f35b6102fd60048036038101906102f89190611eeb565b610aac565b60405161030a9190611e7d565b60405180910390f35b61031b610af5565b005b610325610b7d565b6040516103329190611de7565b60405180910390f35b610343610ba6565b6040516103509190611d21565b60405180910390f35b610361610bdf565b60405161036e9190611d21565b60405180910390f35b610391600480360381019061038c9190611f44565b610c1c565b005b6103ad60048036038101906103a89190611d79565b610d52565b6040516103ba9190611de7565b60405180910390f35b6103dd60048036038101906103d89190611e2e565b610d85565b005b6103e7610ebc565b6040516103f49190611e7d565b60405180910390f35b610417600480360381019061041291906120b9565b610ec1565b005b610433600480360381019061042e9190611d79565b610fbe565b6040516104409190611e7d565b60405180910390f35b610463600480360381019061045e919061213c565b61107d565b6040516104709190611e7d565b60405180910390f35b610493600480360381019061048e919061217c565b611124565b6040516104a09190611c6d565b60405180910390f35b6104c360048036038101906104be9190611d79565b6111b8565b6040516104d5969594939291906121bc565b60405180910390f35b6104e6611340565b6040516104f39190611e7d565b60405180910390f35b61051660048036038101906105119190611eeb565b611346565b005b61052061143e565b60405161052d9190611d21565b60405180910390f35b60006380ac58cd60e01b7bffffffffffffffffffffffffffffffffffffffffffffffffffffffff1916827bffffffffffffffffffffffffffffffffffffffffffffffffffffffff191614806105cf57506301ffc9a760e01b7bffffffffffffffffffffffffffffffffffffffffffffffffffffffff1916827bffffffffffffffffffffffffffffffffffffffffffffffffffffffff1916145b9050919050565b60606040518060400160405280600c81526020017f4b6576696e4b6974746965730000000000000000000000000000000000000000815250905090565b600061061d6107b8565b821061062857600080fd5b6003600083815260200190815260200160002060009054906101000a900473ffffffffffffffffffffffffffffffffffffffff169050919050565b61066d3382611477565b806106fe5750600460003373ffffffffffffffffffffffffffffffffffffffff1673ffffffffffffffffffffffffffffffffffffffff16815260200190815260200160002060008373ffffffffffffffffffffffffffffffffffffffff1673ffffffffffffffffffffffffffffffffffffffff16815260200190815260200160002060009054906101000a900460ff165b61070757600080fd5b816003600083815260200190815260200160002060006101000a81548173ffffffffffffffffffffffffffffffffffffffff021916908373ffffffffffffffffffffffffffffffffffffffff160217905550808273ffffffffffffffffffffffffffffffffffffffff163373ffffffffffffffffffffffffffffffffffffffff167f8c5be1e5ebec7d5bd14f71427d1e84f3dd0314c0f7b2291e5b200ac8c7c3b92560405160405180910390a45050565b6000600580549050905090565b8273ffffffffffffffffffffffffffffffffffffffff163373ffffffffffffffffffffffffffffffffffffffff16148061080557506108048333611124565b5b80610816575061081533826114e3565b5b61081f57600080fd5b6108298382611477565b61083257600080fd5b600073ffffffffffffffffffffffffffffffffffffffff168273ffffffffffffffffffffffffffffffffffffffff16141561086c57600080fd5b6108746107b8565b811061087f57600080fd5b61088a83838361154f565b505050565b6108993382611477565b806108aa57506108a933826114e3565b5b806108bb57506108ba8333611124565b5b6108c457600080fd5b6002600082815260200190815260200160002060009054906101000a900473ffffffffffffffffffffffffffffffffffffffff1673ffffffffffffffffffffffffffffffffffffffff168373ffffffffffffffffffffffffffffffffffffffff161461092f57600080fd5b600073ffffffffffffffffffffffffffffffffffffffff168273ffffffffffffffffffffffffffffffffffffffff16141561096957600080fd5b600580549050811061097a57600080fd5b61099583838360405180602001604052806000815250611796565b505050565b60036020528060005260406000206000915054906101000a900473ffffffffffffffffffffffffffffffffffffffff1681565b60008073ffffffffffffffffffffffffffffffffffffffff166002600084815260200190815260200160002060009054906101000a900473ffffffffffffffffffffffffffffffffffffffff1673ffffffffffffffffffffffffffffffffffffffff161415610a71576040517f08c379a0000000000000000000000000000000000000000000000000000000008152600401610a6890612269565b60405180910390fd5b6002600083815260200190815260200160002060009054906101000a900473ffffffffffffffffffffffffffffffffffffffff169050919050565b6000600160008373ffffffffffffffffffffffffffffffffffffffff1673ffffffffffffffffffffffffffffffffffffffff168152602001908152602001600020549050919050565b610afd6117bc565b73ffffffffffffffffffffffffffffffffffffffff16610b1b610b7d565b73ffffffffffffffffffffffffffffffffffffffff1614610b71576040517f08c379a0000000000000000000000000000000000000000000000000000000008152600401610b68906122d5565b60405180910390fd5b610b7b60006117c4565b565b60008060009054906101000a900473ffffffffffffffffffffffffffffffffffffffff16905090565b6040518060400160405280600281526020017f4b4b00000000000000000000000000000000000000000000000000000000000081525081565b60606040518060400160405280600281526020017f4b4b000000000000000000000000000000000000000000000000000000000000815250905090565b3373ffffffffffffffffffffffffffffffffffffffff168273ffffffffffffffffffffffffffffffffffffffff161415610c5557600080fd5b80600460003373ffffffffffffffffffffffffffffffffffffffff1673ffffffffffffffffffffffffffffffffffffffff16815260200190815260200160002060008473ffffffffffffffffffffffffffffffffffffffff1673ffffffffffffffffffffffffffffffffffffffff16815260200190815260200160002060006101000a81548160ff0219169083151502179055508173ffffffffffffffffffffffffffffffffffffffff163373ffffffffffffffffffffffffffffffffffffffff167f17307eab39ab6107e8899845ad3d59bd9653f200f220920489ca2b5937696c3183604051610d469190611c6d565b60405180910390a35050565b60026020528060005260406000206000915054906101000a900473ffffffffffffffffffffffffffffffffffffffff1681565b600073ffffffffffffffffffffffffffffffffffffffff168273ffffffffffffffffffffffffffffffffffffffff161415610df5576040517f08c379a0000000000000000000000000000000000000000000000000000000008152600401610dec90612341565b60405180910390fd5b3073ffffffffffffffffffffffffffffffffffffffff168273ffffffffffffffffffffffffffffffffffffffff161415610e64576040517f08c379a0000000000000000000000000000000000000000000000000000000008152600401610e5b906123d3565b60405180910390fd5b610e6e3382611477565b610ead576040517f08c379a0000000000000000000000000000000000000000000000000000000008152600401610ea490612465565b60405180910390fd5b610eb833838361154f565b5050565b600a81565b610ecb3383611477565b80610edc5750610edb33836114e3565b5b80610eed5750610eec8433611124565b5b610ef657600080fd5b6002600083815260200190815260200160002060009054906101000a900473ffffffffffffffffffffffffffffffffffffffff1673ffffffffffffffffffffffffffffffffffffffff168473ffffffffffffffffffffffffffffffffffffffff1614610f6157600080fd5b600073ffffffffffffffffffffffffffffffffffffffff168373ffffffffffffffffffffffffffffffffffffffff161415610f9b57600080fd5b6005805490508210610fac57600080fd5b610fb884848484611796565b50505050565b6000610fc86117bc565b73ffffffffffffffffffffffffffffffffffffffff16610fe6610b7d565b73ffffffffffffffffffffffffffffffffffffffff161461103c576040517f08c379a0000000000000000000000000000000000000000000000000000000008152600401611033906122d5565b60405180910390fd5b600a6006541061104b57600080fd5b611061600160065461188890919063ffffffff16565b6006819055506110766000806000853361189e565b9050919050565b60006110893384611477565b61109257600080fd5b61109c3383611477565b6110a557600080fd5b6000806110b1856111b8565b50945050505091506000806110c5876111b8565b50945050505091506000838211156110eb576001846110e491906124b4565b90506110fb565b6001826110f891906124b4565b90505b60006111078685611a2b565b9050611116888a84843361189e565b965050505050505092915050565b6000600460008473ffffffffffffffffffffffffffffffffffffffff1673ffffffffffffffffffffffffffffffffffffffff16815260200190815260200160002060008373ffffffffffffffffffffffffffffffffffffffff1673ffffffffffffffffffffffffffffffffffffffff16815260200190815260200160002060009054906101000a900460ff16905092915050565b6000806000806000806005805490508710611208576040517f08c379a00000000000000000000000000000000000000000000000000000000081526004016111ff90612556565b60405180910390fd5b611211876109cd565b90506005878154811061122757611226612576565b5b9060005260206000209060020201600001546005888154811061124d5761124c612576565b5b906000526020600020906002020160010160009054906101000a900467ffffffffffffffff1667ffffffffffffffff166005898154811061129157611290612576565b5b906000526020600020906002020160010160089054906101000a900463ffffffff1663ffffffff1660058a815481106112cd576112cc612576565b5b9060005260206000209060020201600101600c9054906101000a900463ffffffff1663ffffffff1660058b8154811061130957611308612576565b5b906000526020600020906002020160010160109054906101000a900461ffff1661ffff169550955095509550955091939550919395565b60065481565b61134e6117bc565b73ffffffffffffffffffffffffffffffffffffffff1661136c610b7d565b73ffffffffffffffffffffffffffffffffffffffff16146113c2576040517f08c379a00000000000000000000000000000000000000000000000000000000081526004016113b9906122d5565b60405180910390fd5b600073ffffffffffffffffffffffffffffffffffffffff168173ffffffffffffffffffffffffffffffffffffffff161415611432576040517f08c379a000000000000000000000000000000000000000000000000000000000815260040161142990612617565b60405180910390fd5b61143b816117c4565b50565b6040518060400160405280600c81526020017f4b6576696e4b697474696573000000000000000000000000000000000000000081525081565b60008273ffffffffffffffffffffffffffffffffffffffff166002600084815260200190815260200160002060009054906101000a900473ffffffffffffffffffffffffffffffffffffffff1673ffffffffffffffffffffffffffffffffffffffff1614905092915050565b60008273ffffffffffffffffffffffffffffffffffffffff166003600084815260200190815260200160002060009054906101000a900473ffffffffffffffffffffffffffffffffffffffff1673ffffffffffffffffffffffffffffffffffffffff1614905092915050565b816002600083815260200190815260200160002060006101000a81548173ffffffffffffffffffffffffffffffffffffffff021916908373ffffffffffffffffffffffffffffffffffffffff1602179055506115f360018060008573ffffffffffffffffffffffffffffffffffffffff1673ffffffffffffffffffffffffffffffffffffffff1681526020019081526020016000205461188890919063ffffffff16565b600160008473ffffffffffffffffffffffffffffffffffffffff1673ffffffffffffffffffffffffffffffffffffffff16815260200190815260200160002081905550600073ffffffffffffffffffffffffffffffffffffffff168373ffffffffffffffffffffffffffffffffffffffff1614611736576116bc60018060008673ffffffffffffffffffffffffffffffffffffffff1673ffffffffffffffffffffffffffffffffffffffff16815260200190815260200160002054611a7f90919063ffffffff16565b600160008573ffffffffffffffffffffffffffffffffffffffff1673ffffffffffffffffffffffffffffffffffffffff168152602001908152602001600020819055506003600082815260200190815260200160002060006101000a81549073ffffffffffffffffffffffffffffffffffffffff02191690555b808273ffffffffffffffffffffffffffffffffffffffff168473ffffffffffffffffffffffffffffffffffffffff167fddf252ad1be2c89b69c2b068fc378daa952ba7f163c4a11628f55a4df523b3ef60405160405180910390a4505050565b6117a184848461154f565b6117ad84848484611a95565b6117b657600080fd5b50505050565b600033905090565b60008060009054906101000a900473ffffffffffffffffffffffffffffffffffffffff169050816000806101000a81548173ffffffffffffffffffffffffffffffffffffffff021916908373ffffffffffffffffffffffffffffffffffffffff1602179055508173ffffffffffffffffffffffffffffffffffffffff168173ffffffffffffffffffffffffffffffffffffffff167f8be0079c531659141344cd1fd0a4f28419497f9722a3daafe3b4186f6b6457e060405160405180910390a35050565b6000818361189691906124b4565b905092915050565b6000806040518060a001604052808581526020014267ffffffffffffffff1681526020018863ffffffff1681526020018763ffffffff1681526020018661ffff16815250905060058190806001815401808255809150506001900390600052602060002090600202016000909190919091506000820151816000015560208201518160010160006101000a81548167ffffffffffffffff021916908367ffffffffffffffff16021790555060408201518160010160086101000a81548163ffffffff021916908363ffffffff160217905550606082015181600101600c6101000a81548163ffffffff021916908363ffffffff16021790555060808201518160010160106101000a81548161ffff021916908361ffff1602179055505050600060016005805490506119d09190612637565b90506119de6000858361154f565b7f0a5311bd2a6608f08a180df2ee7c5946819a649b204b554bb8e39825b2c50ad584828a8a89604051611a1595949392919061266b565b60405180910390a1809250505095945050505050565b6000806305f5e10084611a3e91906126ed565b905060006305f5e10084611a52919061271e565b90506000816305f5e10084611a67919061274f565b611a7191906124b4565b905080935050505092915050565b60008183611a8d9190612637565b905092915050565b6000611aa084611ba0565b611aad5760019050611b98565b60008473ffffffffffffffffffffffffffffffffffffffff1663150b7a02338887876040518563ffffffff1660e01b8152600401611aee94939291906127fe565b6020604051808303816000875af1158015611b0d573d6000803e3d6000fd5b505050506040513d601f19601f82011682018060405250810190611b31919061285f565b90507f150b7a023d4804d13e8c85fb27262cb750cf6ba9f9dd3bb30d90f482ceeb4b1f7bffffffffffffffffffffffffffffffffffffffffffffffffffffffff1916817bffffffffffffffffffffffffffffffffffffffffffffffffffffffff1916149150505b949350505050565b600080823b905060008163ffffffff1611915050919050565b6000604051905090565b600080fd5b600080fd5b60007fffffffff0000000000000000000000000000000000000000000000000000000082169050919050565b611c0281611bcd565b8114611c0d57600080fd5b50565b600081359050611c1f81611bf9565b92915050565b600060208284031215611c3b57611c3a611bc3565b5b6000611c4984828501611c10565b91505092915050565b60008115159050919050565b611c6781611c52565b82525050565b6000602082019050611c826000830184611c5e565b92915050565b600081519050919050565b600082825260208201905092915050565b60005b83811015611cc2578082015181840152602081019050611ca7565b83811115611cd1576000848401525b50505050565b6000601f19601f8301169050919050565b6000611cf382611c88565b611cfd8185611c93565b9350611d0d818560208601611ca4565b611d1681611cd7565b840191505092915050565b60006020820190508181036000830152611d3b8184611ce8565b905092915050565b6000819050919050565b611d5681611d43565b8114611d6157600080fd5b50565b600081359050611d7381611d4d565b92915050565b600060208284031215611d8f57611d8e611bc3565b5b6000611d9d84828501611d64565b91505092915050565b600073ffffffffffffffffffffffffffffffffffffffff82169050919050565b6000611dd182611da6565b9050919050565b611de181611dc6565b82525050565b6000602082019050611dfc6000830184611dd8565b92915050565b611e0b81611dc6565b8114611e1657600080fd5b50565b600081359050611e2881611e02565b92915050565b60008060408385031215611e4557611e44611bc3565b5b6000611e5385828601611e19565b9250506020611e6485828601611d64565b9150509250929050565b611e7781611d43565b82525050565b6000602082019050611e926000830184611e6e565b92915050565b600080600060608486031215611eb157611eb0611bc3565b5b6000611ebf86828701611e19565b9350506020611ed086828701611e19565b9250506040611ee186828701611d64565b9150509250925092565b600060208284031215611f0157611f00611bc3565b5b6000611f0f84828501611e19565b91505092915050565b611f2181611c52565b8114611f2c57600080fd5b50565b600081359050611f3e81611f18565b92915050565b60008060408385031215611f5b57611f5a611bc3565b5b6000611f6985828601611e19565b9250506020611f7a85828601611f2f565b9150509250929050565b600080fd5b600080fd5b7f4e487b7100000000000000000000000000000000000000000000000000000000600052604160045260246000fd5b611fc682611cd7565b810181811067ffffffffffffffff82111715611fe557611fe4611f8e565b5b80604052505050565b6000611ff8611bb9565b90506120048282611fbd565b919050565b600067ffffffffffffffff82111561202457612023611f8e565b5b61202d82611cd7565b9050602081019050919050565b82818337600083830152505050565b600061205c61205784612009565b611fee565b90508281526020810184848401111561207857612077611f89565b5b61208384828561203a565b509392505050565b600082601f8301126120a05761209f611f84565b5b81356120b0848260208601612049565b91505092915050565b600080600080608085870312156120d3576120d2611bc3565b5b60006120e187828801611e19565b94505060206120f287828801611e19565b935050604061210387828801611d64565b925050606085013567ffffffffffffffff81111561212457612123611bc8565b5b6121308782880161208b565b91505092959194509250565b6000806040838503121561215357612152611bc3565b5b600061216185828601611d64565b925050602061217285828601611d64565b9150509250929050565b6000806040838503121561219357612192611bc3565b5b60006121a185828601611e19565b92505060206121b285828601611e19565b9150509250929050565b600060c0820190506121d16000830189611e6e565b6121de6020830188611e6e565b6121eb6040830187611e6e565b6121f86060830186611e6e565b6122056080830185611e6e565b61221260a0830184611dd8565b979650505050505050565b7f546f6b656e20446f6573204e6f74204578697374000000000000000000000000600082015250565b6000612253601483611c93565b915061225e8261221d565b602082019050919050565b6000602082019050818103600083015261228281612246565b9050919050565b7f4f776e61626c653a2063616c6c6572206973206e6f7420746865206f776e6572600082015250565b60006122bf602083611c93565b91506122ca82612289565b602082019050919050565b600060208201905081810360008301526122ee816122b2565b9050919050565b7f52656365697665722063616e2774206265205a65726f20416464726573730000600082015250565b600061232b601e83611c93565b9150612336826122f5565b602082019050919050565b6000602082019050818103600083015261235a8161231e565b9050919050565b7f52656365697665722063616e27742062652074686520436f6e7472616374204160008201527f6464726573730000000000000000000000000000000000000000000000000000602082015250565b60006123bd602683611c93565b91506123c882612361565b604082019050919050565b600060208201905081810360008301526123ec816123b0565b9050919050565b7f596f7520617265206e6f7420746865206f776e6572206f66207468697320746f60008201527f6b656e0000000000000000000000000000000000000000000000000000000000602082015250565b600061244f602383611c93565b915061245a826123f3565b604082019050919050565b6000602082019050818103600083015261247e81612442565b9050919050565b7f4e487b7100000000000000000000000000000000000000000000000000000000600052601160045260246000fd5b60006124bf82611d43565b91506124ca83611d43565b9250827fffffffffffffffffffffffffffffffffffffffffffffffffffffffffffffffff038211156124ff576124fe612485565b5b828201905092915050565b7f4b69747479206e6f7420666f756e640000000000000000000000000000000000600082015250565b6000612540600f83611c93565b915061254b8261250a565b602082019050919050565b6000602082019050818103600083015261256f81612533565b9050919050565b7f4e487b7100000000000000000000000000000000000000000000000000000000600052603260045260246000fd5b7f4f776e61626c653a206e6577206f776e657220697320746865207a65726f206160008201527f6464726573730000000000000000000000000000000000000000000000000000602082015250565b6000612601602683611c93565b915061260c826125a5565b604082019050919050565b60006020820190508181036000830152612630816125f4565b9050919050565b600061264282611d43565b915061264d83611d43565b9250828210156126605761265f612485565b5b828203905092915050565b600060a0820190506126806000830188611dd8565b61268d6020830187611e6e565b61269a6040830186611e6e565b6126a76060830185611e6e565b6126b46080830184611e6e565b9695505050505050565b7f4e487b7100000000000000000000000000000000000000000000000000000000600052601260045260246000fd5b60006126f882611d43565b915061270383611d43565b925082612713576127126126be565b5b828204905092915050565b600061272982611d43565b915061273483611d43565b925082612744576127436126be565b5b828206905092915050565b600061275a82611d43565b915061276583611d43565b9250817fffffffffffffffffffffffffffffffffffffffffffffffffffffffffffffffff048311821515161561279e5761279d612485565b5b828202905092915050565b600081519050919050565b600082825260208201905092915050565b60006127d0826127a9565b6127da81856127b4565b93506127ea818560208601611ca4565b6127f381611cd7565b840191505092915050565b60006080820190506128136000830187611dd8565b6128206020830186611dd8565b61282d6040830185611e6e565b818103606083015261283f81846127c5565b905095945050505050565b60008151905061285981611bf9565b92915050565b60006020828403121561287557612874611bc3565b5b60006128838482850161284a565b9150509291505056fea2646970667358221220ff30b0dd5a498e295569c507c8d18e730d2301536ea6d99b35dd6c30717be43564736f6c634300080a0033",
  "immutableReferences": {},
  "source": "pragma solidity >=0.5.10;\n\nimport \"./IERC721.sol\";\nimport \"../node_modules/@openzeppelin/contracts/utils/math/SafeMath.sol\";\nimport \"../node_modules/@openzeppelin/contracts/access/Ownable.sol\";\nimport \"./IERC721Receiver.sol\";\n\n\ncontract kittyContract is IERC721, Ownable {\n\n    using SafeMath for uint256;\n\n    // this value comes from the bytes4 value of each function\n    // header and then an XOR is applied accross all of them\n    bytes4 private constant _INTERFACE_ID_ERC721 = 0x80ac58cd;\n\n    bytes4 private constant _INTERFACE_ID_ERC165 = 0x01ffc9a7;\n\n    event Birth(\n                address owner, \n                uint256 kittenId,\n                uint256 mumId, \n                uint256 dadId, \n                uint256 genes\n            );\n    string public constant token = \"KevinKitties\";\n    string public constant symbolOfToken = \"KK\";\n    uint256 public constant CREATION_LIMIT_GEN0 = 10;\n    bytes4 internal constant MAGIC_ERC721_RECEIVED = bytes4(keccak256(\"onERC721Received(address,address,uint256,bytes)\"));\n\n    mapping(address => uint256) ownershipTokenCount;\n    mapping(uint256 => address) public kittyIndexToOwner;\n\n    mapping(uint256 => address) public kittyIndexToApproved;\n\n    //MyAddress => OperatorAddress => TRUE/FALSE\n    // EX: _operatorApprovals[MyAddress][OperatorAddress] = false;\n    mapping(address => mapping(address => bool)) private _operatorApprovals;\n\n\n    struct Kitty {\n        uint256 genes;\n        uint64 birthTime;\n        uint32 mumId;\n        uint32 dadId;\n        uint16 generation;\n    }\n\n    Kitty[] kitties;\n    \n    uint256 public gen0Counter;\n\n    function breed(uint256 _dadId, uint256 _mumId) public returns (uint256) {\n        // require that the msg.sender is the owner of the dad and mom\n        require(_owns(msg.sender, _dadId)); \n        require(_owns(msg.sender, _mumId));    \n        // Figure out the Generation\n        /*\n        How I approached\n        uint16 newGen;\n        Kitty memory dad = kitties[_dadId];\n        Kitty memory mom = kitties[_mumId];\n        */\n\n        ( uint256 dadDNA,,,,uint256 dadGeneration, ) = getKitty(_dadId);\n        ( uint256 momDNA,,,,uint256 mumGeneration, ) = getKitty(_dadId);\n\n        uint256 newGen;\n        if(mumGeneration > dadGeneration) {\n            newGen = dadGeneration + 1;\n        } else {\n            newGen = mumGeneration + 1;\n        }\n\n        // Create a new cat with the new properties, give it to msg.sender\n        uint256 newDna = _mixDNA(dadDNA, momDNA);\n\n        return _createKitty(_mumId, _dadId, newGen, newDna, msg.sender);\n    }\n\n    function supportsInterface(bytes4 _interfaceId) external view returns (bool) {\n        return (_interfaceId == _INTERFACE_ID_ERC721 || _interfaceId == _INTERFACE_ID_ERC165);\n    }\n\n    function getKitty(uint256 _kittenId) public view returns(\n        uint256 genes, \n        uint256 birthTime,\n        uint256 mumId,\n        uint256 dadId,\n        uint256 generation,\n        address owner) {\n            require(_kittenId < kitties.length, \"Kitty not found\");\n            owner = ownerOf(_kittenId);\n            return (kitties[_kittenId].genes, \n            uint256(kitties[_kittenId].birthTime),\n            uint256(kitties[_kittenId].mumId),\n            uint256(kitties[_kittenId].dadId),\n            uint256(kitties[_kittenId].generation),\n            owner\n            );\n        }\n\n    function createKittyGen0(uint256 _genes) public onlyOwner returns (uint256){\n        require(gen0Counter < CREATION_LIMIT_GEN0);\n\n        gen0Counter = gen0Counter.add(1);\n\n        return _createKitty(0, 0, 0, _genes, msg.sender);\n    }\n\n    function _createKitty(\n        uint256 _mumId, \n        uint256 _dadId, \n        uint256 _generation,\n        uint256 _genes, \n        address _owner) private returns (uint256) {\n            Kitty memory _kitty = Kitty({\n                genes: _genes,\n                birthTime: uint64(block.timestamp),\n                mumId: uint32(_mumId),\n                dadId: uint32(_dadId),\n                generation: uint16(_generation)\n            });\n            kitties.push(_kitty);\n            uint newKittenId = kitties.length - 1;\n            _transfer(address(0), _owner, newKittenId);\n\n            emit Birth(_owner, newKittenId, _mumId, _dadId, _genes);\n\n            return newKittenId;\n        }\n\n\n    /**\n     * @dev Returns the number of tokens in ``owner``'s account.\n     */\n    function balanceOf(address owner) external override view returns (uint256 balance){\n        return ownershipTokenCount[owner];\n    }\n\n    /*\n     * @dev Returns the total number of tokens in circulation.\n     */\n    function totalSupply() public override view returns (uint256 total){\n        return kitties.length;\n    }\n\n    /*\n     * @dev Returns the name of the token.\n     */\n    function name() external override view returns (string memory tokenName){\n        return token;\n    }\n\n    /*\n     * @dev Returns the symbol of the token.\n     */\n    function symbol() external override view returns (string memory tokenSymbol){\n        return symbolOfToken;\n    }\n\n     /**\n     * @dev Returns the owner of the `tokenId` token.\n     *\n     * Requirements:\n     *\n     * - `tokenId` must exist.\n     */\n    function ownerOf(uint256 tokenId) public override view returns (address owner){\n        require(kittyIndexToOwner[tokenId] != address(0), \"Token Does Not Exist\");\n        return kittyIndexToOwner[tokenId];\n    }\n\n         /* @dev Transfers `tokenId` token from `msg.sender` to `to`.\n     *\n     *\n     * Requirements:\n     *\n     * - `to` cannot be the zero address.\n     * - `to` can not be the contract address.\n     * - `tokenId` token must be owned by `msg.sender`.\n     *\n     * Emits a {Transfer} event.\n     */\n    function transfer(address to, uint256 tokenId) external override {\n        require(to != address(0), \"Receiver can't be Zero Address\");\n        require(to != address(this), \"Receiver can't be the Contract Address\");\n        require(_owns(msg.sender,tokenId), \"You are not the owner of this token\");\n        \n        _transfer(msg.sender, to, tokenId);\n    }\n    \n    // We separate out because when we mint a cat, it must come from address(0)\n    function _transfer(address _from, address _to, uint256 _tokenId) internal {\n        kittyIndexToOwner[_tokenId] = _to;\n        ownershipTokenCount[_to] = ownershipTokenCount[_to].add(1);\n        if(_from != address(0)) {\n            ownershipTokenCount[_from] = ownershipTokenCount[_from].sub(1);\n            delete kittyIndexToApproved[_tokenId];\n        }\n        emit Transfer(_from, _to, _tokenId);\n    }\n\n    function _owns(address _claimant, uint256 _tokenId) internal view returns (bool result) {\n        return kittyIndexToOwner[_tokenId] == _claimant;\n    }\n    \n    function isApprovedForAll(address _owner, address _operator) override public view returns (bool) {\n        return _operatorApprovals[_owner][_operator];\n    }\n\n    function approve(address _approved, uint256 _tokenId) override external{\n        require(_owns(msg.sender, _tokenId) || _operatorApprovals[msg.sender][_approved]);\n        kittyIndexToApproved[_tokenId] = _approved;\n        emit Approval(msg.sender, _approved, _tokenId);\n    }\n\n    function setApprovalForAll(address _operator, bool _approved) override external {\n        require(_operator != msg.sender);\n        \n        _operatorApprovals[msg.sender][_operator] = _approved;\n        emit ApprovalForAll(msg.sender, _operator, _approved);\n    }\n\n    function getApproved(uint256 _tokenId) override public view returns (address) {\n        require(_tokenId < totalSupply());\n        return kittyIndexToApproved[_tokenId];\n    }\n\n\n    function transferFrom(address _from, address _to, uint256 _tokenId) override external {\n        require(msg.sender == _from || isApprovedForAll(_from, msg.sender) ||  approvedFor(msg.sender,_tokenId));\n        require(_owns(_from, _tokenId));\n        require(_to != address(0));\n        require(_tokenId < totalSupply());\n        _transfer(_from, _to, _tokenId);\n    }\n\n    function _safeTransfer(address _from, address _to, uint256 _tokenId, bytes memory _data) internal{\n        _transfer(_from, _to, _tokenId);\n        require(_checkERC721Support(_from, _to, _tokenId, _data));\n    }\n\n\n    function safeTransferFrom(address _from, address _to, uint256 _tokenId, bytes memory data) override external {\n        require(_owns(msg.sender, _tokenId)|| approvedFor(msg.sender,_tokenId)|| isApprovedForAll(_from,msg.sender));\n        require(_from == kittyIndexToOwner[_tokenId]);\n        require(_to != address(0));\n        require(_tokenId < kitties.length);\n\n        _safeTransfer(_from, _to, _tokenId, data);\n    }\n\n    function safeTransferFrom(address _from, address _to, uint256 _tokenId) override external {\n        require(_owns(msg.sender, _tokenId)|| approvedFor(msg.sender,_tokenId)|| isApprovedForAll(_from,msg.sender));\n        require(_from == kittyIndexToOwner[_tokenId]);\n        require(_to != address(0));\n        require(_tokenId < kitties.length);\n\n        _safeTransfer(_from, _to, _tokenId, \"\");\n    }\n\n    function approvedFor(address _claimant, uint256 _tokenId) internal view returns (bool) {\n        return kittyIndexToApproved[_tokenId] == _claimant;\n    }\n\n    function _checkERC721Support(address _from, address _to, uint256 _tokenId, bytes memory _data) internal returns (bool) {\n        if( !_isContract(_to) ){ //if it isn't a contract, we're sending to a wallet, and no further checks required\n            return true;\n        }\n        \n        //have to call the _to contract, call onERC721Received\n        bytes4 returnData = IERC721Receiver(_to).onERC721Received(msg.sender, _from, _tokenId, _data);\n\n        //check return value is equal to bytes4(keccak256(\"onERC721Received(address,address,uint256,bytes)\"))\n        return returnData == MAGIC_ERC721_RECEIVED;\n    }\n\n    function _isContract(address _to) view internal returns (bool) {\n        // checking if code size is greater than 0\n        // wallets have a code size of 0\n\n        uint32 size;\n        assembly{\n            size := extcodesize(_to)\n        }\n        return size > 0;\n\n    }\n\n    function _mixDNA(uint256 dadDNA, uint256 momDNA) view internal returns(uint256){\n        // dadId: 11 22 33 44 55 66 77 88\n        // mumId: 88 77 66 55 44 33 22 11\n\n        uint256 dadHalf = dadDNA/100000000; // 11 22 33 44\n        uint256 momHalf = momDNA%100000000; // 44 33 22 11\n\n        uint256 newDNA = (dadHalf*100000000)+momHalf;\n        return newDNA;\n    }\n\n}",
  "sourcePath": "/Users/kevinmichie/Desktop/cryptokitties-clone/contracts/kittyContract.sol",
  "compiler": {
    "name": "solc",
    "version": "0.8.10+commit.fc410830.Emscripten.clang"
  },
  "schemaVersion": "3.4.3",
  "updatedAt": "2022-02-09T01:12:21.456Z",
  "devdoc": {
    "kind": "dev",
    "methods": {
      "approve(address,uint256)": {
        "details": "The zero address indicates there is no approved address.  Throws unless `msg.sender` is the current NFT owner, or an authorized  operator of the current owner.",
        "params": {
          "_approved": "The new approved NFT controller",
          "_tokenId": "The NFT to approve"
        }
      },
      "balanceOf(address)": {
        "details": "Returns the number of tokens in ``owner``'s account."
      },
      "getApproved(uint256)": {
        "details": "Throws if `_tokenId` is not a valid NFT.",
        "params": {
          "_tokenId": "The NFT to find the approved address for"
        },
        "returns": {
          "_0": "The approved address for this NFT, or the zero address if there is none"
        }
      },
      "isApprovedForAll(address,address)": {
        "params": {
          "_operator": "The address that acts on behalf of the owner",
          "_owner": "The address that owns the NFTs"
        },
        "returns": {
          "_0": "True if `_operator` is an approved operator for `_owner`, false otherwise"
        }
      },
      "owner()": {
        "details": "Returns the address of the current owner."
      },
      "ownerOf(uint256)": {
        "details": "Returns the owner of the `tokenId` token. Requirements: - `tokenId` must exist."
      },
      "renounceOwnership()": {
        "details": "Leaves the contract without owner. It will not be possible to call `onlyOwner` functions anymore. Can only be called by the current owner. NOTE: Renouncing ownership will leave the contract without an owner, thereby removing any functionality that is only available to the owner."
      },
      "safeTransferFrom(address,address,uint256)": {
        "details": "This works identically to the other function with an extra data parameter,  except this function just sets data to \"\".",
        "params": {
          "_from": "The current owner of the NFT",
          "_to": "The new owner",
          "_tokenId": "The NFT to transfer"
        }
      },
      "safeTransferFrom(address,address,uint256,bytes)": {
        "details": "Throws unless `msg.sender` is the current owner, an authorized  operator, or the approved address for this NFT. Throws if `_from` is  not the current owner. Throws if `_to` is the zero address. Throws if  `_tokenId` is not a valid NFT. When transfer is complete, this function  checks if `_to` is a smart contract (code size > 0). If so, it calls  `onERC721Received` on `_to` and throws if the return value is not  `bytes4(keccak256(\"onERC721Received(address,address,uint256,bytes)\"))`.",
        "params": {
          "_from": "The current owner of the NFT",
          "_to": "The new owner",
          "_tokenId": "The NFT to transfer",
          "data": "Additional data with no specified format, sent in call to `_to`"
        }
      },
      "setApprovalForAll(address,bool)": {
        "details": "Emits the ApprovalForAll event. The contract MUST allow  multiple operators per owner.",
        "params": {
          "_approved": "True if the operator is approved, false to revoke approval",
          "_operator": "Address to add to the set of authorized operators"
        }
      },
      "transferFrom(address,address,uint256)": {
        "details": "Throws unless `msg.sender` is the current owner, an authorized  operator, or the approved address for this NFT. Throws if `_from` is  not the current owner. Throws if `_to` is the zero address. Throws if  `_tokenId` is not a valid NFT.",
        "params": {
          "_from": "The current owner of the NFT",
          "_to": "The new owner",
          "_tokenId": "The NFT to transfer"
        }
      },
      "transferOwnership(address)": {
        "details": "Transfers ownership of the contract to a new account (`newOwner`). Can only be called by the current owner."
      }
    },
    "version": 1
  },
  "userdoc": {
    "kind": "user",
    "methods": {
      "approve(address,uint256)": {
        "notice": "Change or reaffirm the approved address for an NFT"
      },
      "getApproved(uint256)": {
        "notice": "Get the approved address for a single NFT"
      },
      "isApprovedForAll(address,address)": {
        "notice": "Query if an address is an authorized operator for another address"
      },
      "safeTransferFrom(address,address,uint256)": {
        "notice": "Transfers the ownership of an NFT from one address to another address"
      },
      "safeTransferFrom(address,address,uint256,bytes)": {
        "notice": "Transfers the ownership of an NFT from one address to another address"
      },
      "setApprovalForAll(address,bool)": {
        "notice": "Enable or disable approval for a third party (\"operator\") to manage  all of `msg.sender`'s assets"
      },
      "transferFrom(address,address,uint256)": {
        "notice": "Transfer ownership of an NFT -- THE CALLER IS RESPONSIBLE  TO CONFIRM THAT `_to` IS CAPABLE OF RECEIVING NFTS OR ELSE  THEY MAY BE PERMANENTLY LOST"
      }
    },
    "version": 1
  }
}