{
  "contractName": "kittyContract",
  "abi": [
    {
      "anonymous": false,
      "inputs": [
        {
          "indexed": true,
          "internalType": "address",
          "name": "owner",
          "type": "address"
        },
        {
          "indexed": true,
          "internalType": "address",
          "name": "approved",
          "type": "address"
        },
        {
          "indexed": true,
          "internalType": "uint256",
          "name": "tokenId",
          "type": "uint256"
        }
      ],
      "name": "Approval",
      "type": "event"
    },
    {
      "anonymous": false,
      "inputs": [
        {
          "indexed": false,
          "internalType": "address",
          "name": "owner",
          "type": "address"
        },
        {
          "indexed": false,
          "internalType": "uint256",
          "name": "kittenId",
          "type": "uint256"
        },
        {
          "indexed": false,
          "internalType": "uint256",
          "name": "mumId",
          "type": "uint256"
        },
        {
          "indexed": false,
          "internalType": "uint256",
          "name": "dadId",
          "type": "uint256"
        },
        {
          "indexed": false,
          "internalType": "uint256",
          "name": "genes",
          "type": "uint256"
        }
      ],
      "name": "Birth",
      "type": "event"
    },
    {
      "anonymous": false,
      "inputs": [
        {
          "indexed": true,
          "internalType": "address",
          "name": "previousOwner",
          "type": "address"
        },
        {
          "indexed": true,
          "internalType": "address",
          "name": "newOwner",
          "type": "address"
        }
      ],
      "name": "OwnershipTransferred",
      "type": "event"
    },
    {
      "anonymous": false,
      "inputs": [
        {
          "indexed": true,
          "internalType": "address",
          "name": "from",
          "type": "address"
        },
        {
          "indexed": true,
          "internalType": "address",
          "name": "to",
          "type": "address"
        },
        {
          "indexed": true,
          "internalType": "uint256",
          "name": "tokenId",
          "type": "uint256"
        }
      ],
      "name": "Transfer",
      "type": "event"
    },
    {
      "inputs": [],
      "name": "CREATION_LIMIT_GEN0",
      "outputs": [
        {
          "internalType": "uint256",
          "name": "",
          "type": "uint256"
        }
      ],
      "stateMutability": "view",
      "type": "function",
      "constant": true
    },
    {
      "inputs": [
        {
          "internalType": "uint256",
          "name": "",
          "type": "uint256"
        }
      ],
      "name": "kittyIndexToOwner",
      "outputs": [
        {
          "internalType": "address",
          "name": "",
          "type": "address"
        }
      ],
      "stateMutability": "view",
      "type": "function",
      "constant": true
    },
    {
      "inputs": [],
      "name": "owner",
      "outputs": [
        {
          "internalType": "address",
          "name": "",
          "type": "address"
        }
      ],
      "stateMutability": "view",
      "type": "function",
      "constant": true
    },
    {
      "inputs": [],
      "name": "renounceOwnership",
      "outputs": [],
      "stateMutability": "nonpayable",
      "type": "function"
    },
    {
      "inputs": [],
      "name": "symbolOfToken",
      "outputs": [
        {
          "internalType": "string",
          "name": "",
          "type": "string"
        }
      ],
      "stateMutability": "view",
      "type": "function",
      "constant": true
    },
    {
      "inputs": [],
      "name": "token",
      "outputs": [
        {
          "internalType": "string",
          "name": "",
          "type": "string"
        }
      ],
      "stateMutability": "view",
      "type": "function",
      "constant": true
    },
    {
      "inputs": [
        {
          "internalType": "address",
          "name": "newOwner",
          "type": "address"
        }
      ],
      "name": "transferOwnership",
      "outputs": [],
      "stateMutability": "nonpayable",
      "type": "function"
    },
    {
      "inputs": [
        {
          "internalType": "uint256",
          "name": "_kittenId",
          "type": "uint256"
        }
      ],
      "name": "getKitty",
      "outputs": [
        {
          "internalType": "uint256",
          "name": "genes",
          "type": "uint256"
        },
        {
          "internalType": "uint256",
          "name": "birthTime",
          "type": "uint256"
        },
        {
          "internalType": "uint256",
          "name": "mumId",
          "type": "uint256"
        },
        {
          "internalType": "uint256",
          "name": "dadId",
          "type": "uint256"
        },
        {
          "internalType": "uint256",
          "name": "generation",
          "type": "uint256"
        },
        {
          "internalType": "address",
          "name": "owner",
          "type": "address"
        }
      ],
      "stateMutability": "nonpayable",
      "type": "function"
    },
    {
      "inputs": [
        {
          "internalType": "uint256",
          "name": "_genes",
          "type": "uint256"
        }
      ],
      "name": "createKittyGen0",
      "outputs": [
        {
          "internalType": "uint256",
          "name": "",
          "type": "uint256"
        }
      ],
      "stateMutability": "nonpayable",
      "type": "function"
    },
    {
      "inputs": [
        {
          "internalType": "address",
          "name": "owner",
          "type": "address"
        }
      ],
      "name": "balanceOf",
      "outputs": [
        {
          "internalType": "uint256",
          "name": "balance",
          "type": "uint256"
        }
      ],
      "stateMutability": "view",
      "type": "function",
      "constant": true
    },
    {
      "inputs": [],
      "name": "totalSupply",
      "outputs": [
        {
          "internalType": "uint256",
          "name": "total",
          "type": "uint256"
        }
      ],
      "stateMutability": "view",
      "type": "function",
      "constant": true
    },
    {
      "inputs": [],
      "name": "name",
      "outputs": [
        {
          "internalType": "string",
          "name": "tokenName",
          "type": "string"
        }
      ],
      "stateMutability": "view",
      "type": "function",
      "constant": true
    },
    {
      "inputs": [],
      "name": "symbol",
      "outputs": [
        {
          "internalType": "string",
          "name": "tokenSymbol",
          "type": "string"
        }
      ],
      "stateMutability": "view",
      "type": "function",
      "constant": true
    },
    {
      "inputs": [
        {
          "internalType": "uint256",
          "name": "tokenId",
          "type": "uint256"
        }
      ],
      "name": "ownerOf",
      "outputs": [
        {
          "internalType": "address",
          "name": "owner",
          "type": "address"
        }
      ],
      "stateMutability": "view",
      "type": "function",
      "constant": true
    },
    {
      "inputs": [
        {
          "internalType": "address",
          "name": "to",
          "type": "address"
        },
        {
          "internalType": "uint256",
          "name": "tokenId",
          "type": "uint256"
        }
      ],
      "name": "transfer",
      "outputs": [],
      "stateMutability": "nonpayable",
      "type": "function"
    }
  ],
  "bytecode": "0x608060405234801561001057600080fd5b5061002d61002261003260201b60201c565b61003a60201b60201c565b6100fe565b600033905090565b60008060009054906101000a900473ffffffffffffffffffffffffffffffffffffffff169050816000806101000a81548173ffffffffffffffffffffffffffffffffffffffff021916908373ffffffffffffffffffffffffffffffffffffffff1602179055508173ffffffffffffffffffffffffffffffffffffffff168173ffffffffffffffffffffffffffffffffffffffff167f8be0079c531659141344cd1fd0a4f28419497f9722a3daafe3b4186f6b6457e060405160405180910390a35050565b6116ff8061010d6000396000f3fe608060405234801561001057600080fd5b50600436106100f55760003560e01c806395d89b4111610097578063d5a776ca11610066578063d5a776ca14610264578063e98b7f4d14610294578063f2fde38b146102c9578063fc0c546a146102e5576100f5565b806395d89b41146101dc578063a45f4bfc146101fa578063a9059cbb1461022a578063b483433014610246576100f5565b806370a08231116100d357806370a0823114610166578063715018a6146101965780638da5cb5b146101a0578063938e5e8e146101be576100f5565b806306fdde03146100fa57806318160ddd146101185780636352211e14610136575b600080fd5b610102610303565b60405161010f919061101e565b60405180910390f35b610120610340565b60405161012d9190611059565b60405180910390f35b610150600480360381019061014b91906110a5565b61034d565b60405161015d9190611113565b60405180910390f35b610180600480360381019061017b919061115a565b61042c565b60405161018d9190611059565b60405180910390f35b61019e610475565b005b6101a86104fd565b6040516101b59190611113565b60405180910390f35b6101c6610526565b6040516101d3919061101e565b60405180910390f35b6101e461055f565b6040516101f1919061101e565b60405180910390f35b610214600480360381019061020f91906110a5565b61059c565b6040516102219190611113565b60405180910390f35b610244600480360381019061023f9190611187565b6105cf565b005b61024e610706565b60405161025b9190611059565b60405180910390f35b61027e600480360381019061027991906110a5565b61070b565b60405161028b9190611059565b60405180910390f35b6102ae60048036038101906102a991906110a5565b6107ca565b6040516102c0969594939291906111c7565b60405180910390f35b6102e360048036038101906102de919061115a565b610952565b005b6102ed610a4a565b6040516102fa919061101e565b60405180910390f35b60606040518060400160405280600c81526020017f4b6576696e4b6974746965730000000000000000000000000000000000000000815250905090565b6000600380549050905090565b60008073ffffffffffffffffffffffffffffffffffffffff166002600084815260200190815260200160002060009054906101000a900473ffffffffffffffffffffffffffffffffffffffff1673ffffffffffffffffffffffffffffffffffffffff1614156103f1576040517f08c379a00000000000000000000000000000000000000000000000000000000081526004016103e890611274565b60405180910390fd5b6002600083815260200190815260200160002060009054906101000a900473ffffffffffffffffffffffffffffffffffffffff169050919050565b6000600160008373ffffffffffffffffffffffffffffffffffffffff1673ffffffffffffffffffffffffffffffffffffffff168152602001908152602001600020549050919050565b61047d610a83565b73ffffffffffffffffffffffffffffffffffffffff1661049b6104fd565b73ffffffffffffffffffffffffffffffffffffffff16146104f1576040517f08c379a00000000000000000000000000000000000000000000000000000000081526004016104e8906112e0565b60405180910390fd5b6104fb6000610a8b565b565b60008060009054906101000a900473ffffffffffffffffffffffffffffffffffffffff16905090565b6040518060400160405280600281526020017f4b4b00000000000000000000000000000000000000000000000000000000000081525081565b60606040518060400160405280600281526020017f4b4b000000000000000000000000000000000000000000000000000000000000815250905090565b60026020528060005260406000206000915054906101000a900473ffffffffffffffffffffffffffffffffffffffff1681565b600073ffffffffffffffffffffffffffffffffffffffff168273ffffffffffffffffffffffffffffffffffffffff16141561063f576040517f08c379a00000000000000000000000000000000000000000000000000000000081526004016106369061134c565b60405180910390fd5b3073ffffffffffffffffffffffffffffffffffffffff168273ffffffffffffffffffffffffffffffffffffffff1614156106ae576040517f08c379a00000000000000000000000000000000000000000000000000000000081526004016106a5906113de565b60405180910390fd5b6106b83382610b4f565b6106f7576040517f08c379a00000000000000000000000000000000000000000000000000000000081526004016106ee90611470565b60405180910390fd5b610702338383610bbb565b5050565b600a81565b6000610715610a83565b73ffffffffffffffffffffffffffffffffffffffff166107336104fd565b73ffffffffffffffffffffffffffffffffffffffff1614610789576040517f08c379a0000000000000000000000000000000000000000000000000000000008152600401610780906112e0565b60405180910390fd5b600a6004541061079857600080fd5b6107ae6001600454610dcc90919063ffffffff16565b6004819055506107c360008060008533610de2565b9050919050565b600080600080600080600380549050871061081a576040517f08c379a0000000000000000000000000000000000000000000000000000000008152600401610811906114dc565b60405180910390fd5b6108238761034d565b905060038781548110610839576108386114fc565b5b9060005260206000209060020201600001546003888154811061085f5761085e6114fc565b5b906000526020600020906002020160010160009054906101000a900467ffffffffffffffff1667ffffffffffffffff16600389815481106108a3576108a26114fc565b5b906000526020600020906002020160010160089054906101000a900463ffffffff1663ffffffff1660038a815481106108df576108de6114fc565b5b9060005260206000209060020201600101600c9054906101000a900463ffffffff1663ffffffff1660038b8154811061091b5761091a6114fc565b5b906000526020600020906002020160010160109054906101000a900461ffff1661ffff169550955095509550955091939550919395565b61095a610a83565b73ffffffffffffffffffffffffffffffffffffffff166109786104fd565b73ffffffffffffffffffffffffffffffffffffffff16146109ce576040517f08c379a00000000000000000000000000000000000000000000000000000000081526004016109c5906112e0565b60405180910390fd5b600073ffffffffffffffffffffffffffffffffffffffff168173ffffffffffffffffffffffffffffffffffffffff161415610a3e576040517f08c379a0000000000000000000000000000000000000000000000000000000008152600401610a359061159d565b60405180910390fd5b610a4781610a8b565b50565b6040518060400160405280600c81526020017f4b6576696e4b697474696573000000000000000000000000000000000000000081525081565b600033905090565b60008060009054906101000a900473ffffffffffffffffffffffffffffffffffffffff169050816000806101000a81548173ffffffffffffffffffffffffffffffffffffffff021916908373ffffffffffffffffffffffffffffffffffffffff1602179055508173ffffffffffffffffffffffffffffffffffffffff168173ffffffffffffffffffffffffffffffffffffffff167f8be0079c531659141344cd1fd0a4f28419497f9722a3daafe3b4186f6b6457e060405160405180910390a35050565b60008273ffffffffffffffffffffffffffffffffffffffff166002600084815260200190815260200160002060009054906101000a900473ffffffffffffffffffffffffffffffffffffffff1673ffffffffffffffffffffffffffffffffffffffff1614905092915050565b816002600083815260200190815260200160002060006101000a81548173ffffffffffffffffffffffffffffffffffffffff021916908373ffffffffffffffffffffffffffffffffffffffff160217905550610c5f60018060008573ffffffffffffffffffffffffffffffffffffffff1673ffffffffffffffffffffffffffffffffffffffff16815260200190815260200160002054610dcc90919063ffffffff16565b600160008473ffffffffffffffffffffffffffffffffffffffff1673ffffffffffffffffffffffffffffffffffffffff16815260200190815260200160002081905550600073ffffffffffffffffffffffffffffffffffffffff168373ffffffffffffffffffffffffffffffffffffffff1614610d6c57610d2860018060008673ffffffffffffffffffffffffffffffffffffffff1673ffffffffffffffffffffffffffffffffffffffff16815260200190815260200160002054610f6f90919063ffffffff16565b600160008573ffffffffffffffffffffffffffffffffffffffff1673ffffffffffffffffffffffffffffffffffffffff168152602001908152602001600020819055505b808273ffffffffffffffffffffffffffffffffffffffff168473ffffffffffffffffffffffffffffffffffffffff167fddf252ad1be2c89b69c2b068fc378daa952ba7f163c4a11628f55a4df523b3ef60405160405180910390a4505050565b60008183610dda91906115ec565b905092915050565b6000806040518060a001604052808581526020014267ffffffffffffffff1681526020018863ffffffff1681526020018763ffffffff1681526020018661ffff16815250905060038190806001815401808255809150506001900390600052602060002090600202016000909190919091506000820151816000015560208201518160010160006101000a81548167ffffffffffffffff021916908367ffffffffffffffff16021790555060408201518160010160086101000a81548163ffffffff021916908363ffffffff160217905550606082015181600101600c6101000a81548163ffffffff021916908363ffffffff16021790555060808201518160010160106101000a81548161ffff021916908361ffff160217905550505060006001600380549050610f149190611642565b9050610f2260008583610bbb565b7f0a5311bd2a6608f08a180df2ee7c5946819a649b204b554bb8e39825b2c50ad584828a8a89604051610f59959493929190611676565b60405180910390a1809250505095945050505050565b60008183610f7d9190611642565b905092915050565b600081519050919050565b600082825260208201905092915050565b60005b83811015610fbf578082015181840152602081019050610fa4565b83811115610fce576000848401525b50505050565b6000601f19601f8301169050919050565b6000610ff082610f85565b610ffa8185610f90565b935061100a818560208601610fa1565b61101381610fd4565b840191505092915050565b600060208201905081810360008301526110388184610fe5565b905092915050565b6000819050919050565b61105381611040565b82525050565b600060208201905061106e600083018461104a565b92915050565b600080fd5b61108281611040565b811461108d57600080fd5b50565b60008135905061109f81611079565b92915050565b6000602082840312156110bb576110ba611074565b5b60006110c984828501611090565b91505092915050565b600073ffffffffffffffffffffffffffffffffffffffff82169050919050565b60006110fd826110d2565b9050919050565b61110d816110f2565b82525050565b60006020820190506111286000830184611104565b92915050565b611137816110f2565b811461114257600080fd5b50565b6000813590506111548161112e565b92915050565b6000602082840312156111705761116f611074565b5b600061117e84828501611145565b91505092915050565b6000806040838503121561119e5761119d611074565b5b60006111ac85828601611145565b92505060206111bd85828601611090565b9150509250929050565b600060c0820190506111dc600083018961104a565b6111e9602083018861104a565b6111f6604083018761104a565b611203606083018661104a565b611210608083018561104a565b61121d60a0830184611104565b979650505050505050565b7f546f6b656e20446f6573204e6f74204578697374000000000000000000000000600082015250565b600061125e601483610f90565b915061126982611228565b602082019050919050565b6000602082019050818103600083015261128d81611251565b9050919050565b7f4f776e61626c653a2063616c6c6572206973206e6f7420746865206f776e6572600082015250565b60006112ca602083610f90565b91506112d582611294565b602082019050919050565b600060208201905081810360008301526112f9816112bd565b9050919050565b7f52656365697665722063616e2774206265205a65726f20416464726573730000600082015250565b6000611336601e83610f90565b915061134182611300565b602082019050919050565b6000602082019050818103600083015261136581611329565b9050919050565b7f52656365697665722063616e27742062652074686520436f6e7472616374204160008201527f6464726573730000000000000000000000000000000000000000000000000000602082015250565b60006113c8602683610f90565b91506113d38261136c565b604082019050919050565b600060208201905081810360008301526113f7816113bb565b9050919050565b7f596f7520617265206e6f7420746865206f776e6572206f66207468697320746f60008201527f6b656e0000000000000000000000000000000000000000000000000000000000602082015250565b600061145a602383610f90565b9150611465826113fe565b604082019050919050565b600060208201905081810360008301526114898161144d565b9050919050565b7f4b69747479206e6f7420666f756e640000000000000000000000000000000000600082015250565b60006114c6600f83610f90565b91506114d182611490565b602082019050919050565b600060208201905081810360008301526114f5816114b9565b9050919050565b7f4e487b7100000000000000000000000000000000000000000000000000000000600052603260045260246000fd5b7f4f776e61626c653a206e6577206f776e657220697320746865207a65726f206160008201527f6464726573730000000000000000000000000000000000000000000000000000602082015250565b6000611587602683610f90565b91506115928261152b565b604082019050919050565b600060208201905081810360008301526115b68161157a565b9050919050565b7f4e487b7100000000000000000000000000000000000000000000000000000000600052601160045260246000fd5b60006115f782611040565b915061160283611040565b9250827fffffffffffffffffffffffffffffffffffffffffffffffffffffffffffffffff03821115611637576116366115bd565b5b828201905092915050565b600061164d82611040565b915061165883611040565b92508282101561166b5761166a6115bd565b5b828203905092915050565b600060a08201905061168b6000830188611104565b611698602083018761104a565b6116a5604083018661104a565b6116b2606083018561104a565b6116bf608083018461104a565b969550505050505056fea2646970667358221220c9290743bda59e01110b6cbb1b851bc8cdf64d966a95139a9dd5f5ab7e646aa464736f6c634300080a0033",
  "immutableReferences": {},
  "source": "pragma solidity >=0.5.10;\n\nimport \"./IERC721.sol\";\nimport \"../node_modules/@openzeppelin/contracts/utils/math/SafeMath.sol\";\nimport \"../node_modules/@openzeppelin/contracts/access/Ownable.sol\";\n\n\ncontract kittyContract is IERC721, Ownable {\n\n    using SafeMath for uint256;\n\n    event Birth(\n                address owner, \n                uint256 kittenId,\n                uint256 mumId, \n                uint256 dadId, \n                uint256 genes\n            );\n    string public constant token = \"KevinKitties\";\n    string public constant symbolOfToken = \"KK\";\n    uint256 public constant CREATION_LIMIT_GEN0 = 10;\n    mapping(address => uint256) ownershipTokenCount;\n    mapping(uint256 => address) public kittyIndexToOwner;\n\n    struct Kitty {\n        uint256 genes;\n        uint64 birthTime;\n        uint32 mumId;\n        uint32 dadId;\n        uint16 generation;\n    }\n\n    Kitty[] kitties;\n    \n    uint256 gen0Counter;\n\n    function getKitty(uint256 _kittenId) public returns(\n        uint256 genes, \n        uint256 birthTime,\n        uint256 mumId,\n        uint256 dadId,\n        uint256 generation,\n        address owner) {\n            require(_kittenId < kitties.length, \"Kitty not found\");\n            owner = ownerOf(_kittenId);\n            return (kitties[_kittenId].genes, \n            uint256(kitties[_kittenId].birthTime),\n            uint256(kitties[_kittenId].mumId),\n            uint256(kitties[_kittenId].dadId),\n            uint256(kitties[_kittenId].generation),\n            owner\n            );\n        }\n\n    function createKittyGen0(uint256 _genes) public onlyOwner returns (uint256){\n        require(gen0Counter < CREATION_LIMIT_GEN0);\n\n        gen0Counter = gen0Counter.add(1);\n\n        return _createKitty(0, 0, 0, _genes, msg.sender);\n    }\n\n    function _createKitty(\n        uint256 _mumId, \n        uint256 _dadId, \n        uint256 _generation,\n        uint256 _genes, \n        address _owner) private returns (uint256) {\n            Kitty memory _kitty = Kitty({\n                genes: _genes,\n                birthTime: uint64(block.timestamp),\n                mumId: uint32(_mumId),\n                dadId: uint32(_dadId),\n                generation: uint16(_generation)\n            });\n            kitties.push(_kitty);\n            uint newKittenId = kitties.length - 1;\n            _transfer(address(0), _owner, newKittenId);\n\n            emit Birth(_owner, newKittenId, _mumId, _dadId, _genes);\n\n            return newKittenId;\n        }\n\n\n    /**\n     * @dev Returns the number of tokens in ``owner``'s account.\n     */\n    function balanceOf(address owner) external override view returns (uint256 balance){\n        return ownershipTokenCount[owner];\n    }\n\n    /*\n     * @dev Returns the total number of tokens in circulation.\n     */\n    function totalSupply() external override view returns (uint256 total){\n        return kitties.length;\n    }\n\n    /*\n     * @dev Returns the name of the token.\n     */\n    function name() external override view returns (string memory tokenName){\n        return token;\n    }\n\n    /*\n     * @dev Returns the symbol of the token.\n     */\n    function symbol() external override view returns (string memory tokenSymbol){\n        return symbolOfToken;\n    }\n\n     /**\n     * @dev Returns the owner of the `tokenId` token.\n     *\n     * Requirements:\n     *\n     * - `tokenId` must exist.\n     */\n    function ownerOf(uint256 tokenId) public override view returns (address owner){\n        require(kittyIndexToOwner[tokenId] != address(0), \"Token Does Not Exist\");\n        return kittyIndexToOwner[tokenId];\n    }\n\n         /* @dev Transfers `tokenId` token from `msg.sender` to `to`.\n     *\n     *\n     * Requirements:\n     *\n     * - `to` cannot be the zero address.\n     * - `to` can not be the contract address.\n     * - `tokenId` token must be owned by `msg.sender`.\n     *\n     * Emits a {Transfer} event.\n     */\n    function transfer(address to, uint256 tokenId) external override {\n        require(to != address(0), \"Receiver can't be Zero Address\");\n        require(to != address(this), \"Receiver can't be the Contract Address\");\n        require(_owns(msg.sender,tokenId), \"You are not the owner of this token\");\n        \n        _transfer(msg.sender, to, tokenId);\n    }\n    \n    // We separate out because when we mint a cat, it must come from address(0)\n    function _transfer(address _from, address _to, uint256 _tokenId) internal {\n        kittyIndexToOwner[_tokenId] = _to;\n        ownershipTokenCount[_to] = ownershipTokenCount[_to].add(1);\n        if(_from != address(0)) {\n            ownershipTokenCount[_from] = ownershipTokenCount[_from].sub(1);\n        }\n        emit Transfer(_from, _to, _tokenId);\n    }\n\n    function _owns(address _claimant, uint256 _tokenId) internal view returns (bool result) {\n        return kittyIndexToOwner[_tokenId] == _claimant;\n    }\n}",
  "sourcePath": "/Users/kevinmichie/Desktop/cryptokitties-clone/contracts/kittyContract.sol",
  "compiler": {
    "name": "solc",
    "version": "0.8.10+commit.fc410830.Emscripten.clang"
  },
  "schemaVersion": "3.4.3",
  "updatedAt": "2022-01-21T21:28:09.616Z",
  "networkType": "ethereum",
  "devdoc": {
    "kind": "dev",
    "methods": {
      "balanceOf(address)": {
        "details": "Returns the number of tokens in ``owner``'s account."
      },
      "owner()": {
        "details": "Returns the address of the current owner."
      },
      "ownerOf(uint256)": {
        "details": "Returns the owner of the `tokenId` token. Requirements: - `tokenId` must exist."
      },
      "renounceOwnership()": {
        "details": "Leaves the contract without owner. It will not be possible to call `onlyOwner` functions anymore. Can only be called by the current owner. NOTE: Renouncing ownership will leave the contract without an owner, thereby removing any functionality that is only available to the owner."
      },
      "transferOwnership(address)": {
        "details": "Transfers ownership of the contract to a new account (`newOwner`). Can only be called by the current owner."
      }
    },
    "version": 1
  },
  "userdoc": {
    "kind": "user",
    "methods": {},
    "version": 1
  }
}