{
  "contractName": "kittyContract",
  "abi": [
    {
      "anonymous": false,
      "inputs": [
        {
          "indexed": true,
          "internalType": "address",
          "name": "owner",
          "type": "address"
        },
        {
          "indexed": true,
          "internalType": "address",
          "name": "approved",
          "type": "address"
        },
        {
          "indexed": true,
          "internalType": "uint256",
          "name": "tokenId",
          "type": "uint256"
        }
      ],
      "name": "Approval",
      "type": "event"
    },
    {
      "anonymous": false,
      "inputs": [
        {
          "indexed": true,
          "internalType": "address",
          "name": "from",
          "type": "address"
        },
        {
          "indexed": true,
          "internalType": "address",
          "name": "to",
          "type": "address"
        },
        {
          "indexed": true,
          "internalType": "uint256",
          "name": "tokenId",
          "type": "uint256"
        }
      ],
      "name": "Transfer",
      "type": "event"
    },
    {
      "inputs": [
        {
          "internalType": "uint256",
          "name": "",
          "type": "uint256"
        }
      ],
      "name": "kittyIndexToOwner",
      "outputs": [
        {
          "internalType": "address",
          "name": "",
          "type": "address"
        }
      ],
      "stateMutability": "view",
      "type": "function",
      "constant": true
    },
    {
      "inputs": [],
      "name": "symbolOfToken",
      "outputs": [
        {
          "internalType": "string",
          "name": "",
          "type": "string"
        }
      ],
      "stateMutability": "view",
      "type": "function",
      "constant": true
    },
    {
      "inputs": [],
      "name": "token",
      "outputs": [
        {
          "internalType": "string",
          "name": "",
          "type": "string"
        }
      ],
      "stateMutability": "view",
      "type": "function",
      "constant": true
    },
    {
      "inputs": [
        {
          "internalType": "address",
          "name": "owner",
          "type": "address"
        }
      ],
      "name": "balanceOf",
      "outputs": [
        {
          "internalType": "uint256",
          "name": "balance",
          "type": "uint256"
        }
      ],
      "stateMutability": "view",
      "type": "function",
      "constant": true
    },
    {
      "inputs": [],
      "name": "totalSupply",
      "outputs": [
        {
          "internalType": "uint256",
          "name": "total",
          "type": "uint256"
        }
      ],
      "stateMutability": "view",
      "type": "function",
      "constant": true
    },
    {
      "inputs": [],
      "name": "name",
      "outputs": [
        {
          "internalType": "string",
          "name": "tokenName",
          "type": "string"
        }
      ],
      "stateMutability": "view",
      "type": "function",
      "constant": true
    },
    {
      "inputs": [],
      "name": "symbol",
      "outputs": [
        {
          "internalType": "string",
          "name": "tokenSymbol",
          "type": "string"
        }
      ],
      "stateMutability": "view",
      "type": "function",
      "constant": true
    },
    {
      "inputs": [
        {
          "internalType": "uint256",
          "name": "tokenId",
          "type": "uint256"
        }
      ],
      "name": "ownerOf",
      "outputs": [
        {
          "internalType": "address",
          "name": "owner",
          "type": "address"
        }
      ],
      "stateMutability": "view",
      "type": "function",
      "constant": true
    },
    {
      "inputs": [
        {
          "internalType": "address",
          "name": "to",
          "type": "address"
        },
        {
          "internalType": "uint256",
          "name": "tokenId",
          "type": "uint256"
        }
      ],
      "name": "transfer",
      "outputs": [],
      "stateMutability": "nonpayable",
      "type": "function"
    }
  ],
  "bytecode": "0x608060405234801561001057600080fd5b50610d38806100206000396000f3fe608060405234801561001057600080fd5b50600436106100935760003560e01c8063938e5e8e11610066578063938e5e8e1461013457806395d89b4114610152578063a45f4bfc14610170578063a9059cbb146101a0578063fc0c546a146101bc57610093565b806306fdde031461009857806318160ddd146100b65780636352211e146100d457806370a0823114610104575b600080fd5b6100a06101da565b6040516100ad91906108a4565b60405180910390f35b6100be610217565b6040516100cb91906108df565b60405180910390f35b6100ee60048036038101906100e9919061092b565b610224565b6040516100fb9190610999565b60405180910390f35b61011e600480360381019061011991906109e0565b610303565b60405161012b91906108df565b60405180910390f35b61013c61034b565b60405161014991906108a4565b60405180910390f35b61015a610384565b60405161016791906108a4565b60405180910390f35b61018a6004803603810190610185919061092b565b6103c1565b6040516101979190610999565b60405180910390f35b6101ba60048036038101906101b59190610a0d565b6103f4565b005b6101c461052b565b6040516101d191906108a4565b60405180910390f35b60606040518060400160405280600c81526020017f4b6576696e4b6974746965730000000000000000000000000000000000000000815250905090565b6000600280549050905090565b60008073ffffffffffffffffffffffffffffffffffffffff166001600084815260200190815260200160002060009054906101000a900473ffffffffffffffffffffffffffffffffffffffff1673ffffffffffffffffffffffffffffffffffffffff1614156102c8576040517f08c379a00000000000000000000000000000000000000000000000000000000081526004016102bf90610a99565b60405180910390fd5b6001600083815260200190815260200160002060009054906101000a900473ffffffffffffffffffffffffffffffffffffffff169050919050565b60008060008373ffffffffffffffffffffffffffffffffffffffff1673ffffffffffffffffffffffffffffffffffffffff168152602001908152602001600020549050919050565b6040518060400160405280600281526020017f4b4b00000000000000000000000000000000000000000000000000000000000081525081565b60606040518060400160405280600281526020017f4b4b000000000000000000000000000000000000000000000000000000000000815250905090565b60016020528060005260406000206000915054906101000a900473ffffffffffffffffffffffffffffffffffffffff1681565b600073ffffffffffffffffffffffffffffffffffffffff168273ffffffffffffffffffffffffffffffffffffffff161415610464576040517f08c379a000000000000000000000000000000000000000000000000000000000815260040161045b90610b05565b60405180910390fd5b3073ffffffffffffffffffffffffffffffffffffffff168273ffffffffffffffffffffffffffffffffffffffff1614156104d3576040517f08c379a00000000000000000000000000000000000000000000000000000000081526004016104ca90610b97565b60405180910390fd5b6104dd3382610564565b61051c576040517f08c379a000000000000000000000000000000000000000000000000000000000815260040161051390610c29565b60405180910390fd5b6105273383836105d0565b5050565b6040518060400160405280600c81526020017f4b6576696e4b697474696573000000000000000000000000000000000000000081525081565b60008273ffffffffffffffffffffffffffffffffffffffff166001600084815260200190815260200160002060009054906101000a900473ffffffffffffffffffffffffffffffffffffffff1673ffffffffffffffffffffffffffffffffffffffff1614905092915050565b816001600083815260200190815260200160002060006101000a81548173ffffffffffffffffffffffffffffffffffffffff021916908373ffffffffffffffffffffffffffffffffffffffff16021790555061067460016000808573ffffffffffffffffffffffffffffffffffffffff1673ffffffffffffffffffffffffffffffffffffffff168152602001908152602001600020546107df90919063ffffffff16565b6000808473ffffffffffffffffffffffffffffffffffffffff1673ffffffffffffffffffffffffffffffffffffffff16815260200190815260200160002081905550600073ffffffffffffffffffffffffffffffffffffffff168373ffffffffffffffffffffffffffffffffffffffff161461077f5761073c60016000808673ffffffffffffffffffffffffffffffffffffffff1673ffffffffffffffffffffffffffffffffffffffff168152602001908152602001600020546107f590919063ffffffff16565b6000808573ffffffffffffffffffffffffffffffffffffffff1673ffffffffffffffffffffffffffffffffffffffff168152602001908152602001600020819055505b808273ffffffffffffffffffffffffffffffffffffffff168473ffffffffffffffffffffffffffffffffffffffff167fddf252ad1be2c89b69c2b068fc378daa952ba7f163c4a11628f55a4df523b3ef60405160405180910390a4505050565b600081836107ed9190610c78565b905092915050565b600081836108039190610cce565b905092915050565b600081519050919050565b600082825260208201905092915050565b60005b8381101561084557808201518184015260208101905061082a565b83811115610854576000848401525b50505050565b6000601f19601f8301169050919050565b60006108768261080b565b6108808185610816565b9350610890818560208601610827565b6108998161085a565b840191505092915050565b600060208201905081810360008301526108be818461086b565b905092915050565b6000819050919050565b6108d9816108c6565b82525050565b60006020820190506108f460008301846108d0565b92915050565b600080fd5b610908816108c6565b811461091357600080fd5b50565b600081359050610925816108ff565b92915050565b600060208284031215610941576109406108fa565b5b600061094f84828501610916565b91505092915050565b600073ffffffffffffffffffffffffffffffffffffffff82169050919050565b600061098382610958565b9050919050565b61099381610978565b82525050565b60006020820190506109ae600083018461098a565b92915050565b6109bd81610978565b81146109c857600080fd5b50565b6000813590506109da816109b4565b92915050565b6000602082840312156109f6576109f56108fa565b5b6000610a04848285016109cb565b91505092915050565b60008060408385031215610a2457610a236108fa565b5b6000610a32858286016109cb565b9250506020610a4385828601610916565b9150509250929050565b7f546f6b656e20446f6573204e6f74204578697374000000000000000000000000600082015250565b6000610a83601483610816565b9150610a8e82610a4d565b602082019050919050565b60006020820190508181036000830152610ab281610a76565b9050919050565b7f52656365697665722063616e2774206265205a65726f20416464726573730000600082015250565b6000610aef601e83610816565b9150610afa82610ab9565b602082019050919050565b60006020820190508181036000830152610b1e81610ae2565b9050919050565b7f52656365697665722063616e27742062652074686520436f6e7472616374204160008201527f6464726573730000000000000000000000000000000000000000000000000000602082015250565b6000610b81602683610816565b9150610b8c82610b25565b604082019050919050565b60006020820190508181036000830152610bb081610b74565b9050919050565b7f596f7520617265206e6f7420746865206f776e6572206f66207468697320746f60008201527f6b656e0000000000000000000000000000000000000000000000000000000000602082015250565b6000610c13602383610816565b9150610c1e82610bb7565b604082019050919050565b60006020820190508181036000830152610c4281610c06565b9050919050565b7f4e487b7100000000000000000000000000000000000000000000000000000000600052601160045260246000fd5b6000610c83826108c6565b9150610c8e836108c6565b9250827fffffffffffffffffffffffffffffffffffffffffffffffffffffffffffffffff03821115610cc357610cc2610c49565b5b828201905092915050565b6000610cd9826108c6565b9150610ce4836108c6565b925082821015610cf757610cf6610c49565b5b82820390509291505056fea2646970667358221220088d51982f500e77ad09928d541ee0c94bcd88726b3c17e6eaad820e34c0be6464736f6c634300080a0033",
  "immutableReferences": {},
  "source": "pragma solidity >=0.5.10;\n\nimport \"./IERC721.sol\";\nimport \"../node_modules/@openzeppelin/contracts/utils/math/SafeMath.sol\";\n\n\ncontract kittyContract is IERC721 {\n\n    using SafeMath for uint256;\n\n    string public constant token = \"KevinKitties\";\n    string public constant symbolOfToken = \"KK\";\n    mapping(address => uint256) ownershipTokenCount;\n    mapping(uint256 => address) public kittyIndexToOwner;\n\n    struct Kitty {\n        uint256 genes;\n        uint64 birthTime;\n        uint32 mumId;\n        uint32 dadId;\n        uint16 generation;\n    }\n\n    Kitty[] kitties;\n    \n    /**\n     * @dev Returns the number of tokens in ``owner``'s account.\n     */\n    function balanceOf(address owner) external override view returns (uint256 balance){\n        return ownershipTokenCount[owner];\n    }\n\n    /*\n     * @dev Returns the total number of tokens in circulation.\n     */\n    function totalSupply() external override view returns (uint256 total){\n        return kitties.length;\n    }\n\n    /*\n     * @dev Returns the name of the token.\n     */\n    function name() external override view returns (string memory tokenName){\n        return token;\n    }\n\n    /*\n     * @dev Returns the symbol of the token.\n     */\n    function symbol() external override view returns (string memory tokenSymbol){\n        return symbolOfToken;\n    }\n\n     /**\n     * @dev Returns the owner of the `tokenId` token.\n     *\n     * Requirements:\n     *\n     * - `tokenId` must exist.\n     */\n    function ownerOf(uint256 tokenId) external override view returns (address owner){\n        require(kittyIndexToOwner[tokenId] != address(0), \"Token Does Not Exist\");\n        return kittyIndexToOwner[tokenId];\n    }\n\n         /* @dev Transfers `tokenId` token from `msg.sender` to `to`.\n     *\n     *\n     * Requirements:\n     *\n     * - `to` cannot be the zero address.\n     * - `to` can not be the contract address.\n     * - `tokenId` token must be owned by `msg.sender`.\n     *\n     * Emits a {Transfer} event.\n     */\n    function transfer(address to, uint256 tokenId) external override {\n        require(to != address(0), \"Receiver can't be Zero Address\");\n        require(to != address(this), \"Receiver can't be the Contract Address\");\n        require(_owns(msg.sender,tokenId), \"You are not the owner of this token\");\n        \n        _transfer(msg.sender, to, tokenId);\n    }\n    \n    // We separate out because when we mint a cat, it must come from address(0)\n    function _transfer(address _from, address _to, uint256 _tokenId) internal {\n        kittyIndexToOwner[_tokenId] = _to;\n        ownershipTokenCount[_to] = ownershipTokenCount[_to].add(1);\n        if(_from != address(0)) {\n            ownershipTokenCount[_from] = ownershipTokenCount[_from].sub(1);\n        }\n        emit Transfer(_from, _to, _tokenId);\n    }\n\n    function _owns(address _claimant, uint256 _tokenId) internal view returns (bool result) {\n        return kittyIndexToOwner[_tokenId] == _claimant;\n    }\n}",
  "sourcePath": "/Users/kevinmichie/Desktop/cryptokitties-clone/contracts/kittyContract.sol",
  "compiler": {
    "name": "solc",
    "version": "0.8.10+commit.fc410830.Emscripten.clang"
  },
  "schemaVersion": "3.4.3",
  "updatedAt": "2022-01-19T23:43:22.926Z",
  "networkType": "ethereum",
  "devdoc": {
    "kind": "dev",
    "methods": {
      "balanceOf(address)": {
        "details": "Returns the number of tokens in ``owner``'s account."
      },
      "ownerOf(uint256)": {
        "details": "Returns the owner of the `tokenId` token. Requirements: - `tokenId` must exist."
      }
    },
    "version": 1
  },
  "userdoc": {
    "kind": "user",
    "methods": {},
    "version": 1
  }
}